:020000040800F2
:100000004004002001010008410D00083D0D0008DA
:100010003F0D000849010008190E0008000000000B
:10002000000000000000000000000000650D000856
:100030009501000800000000630D0008670D00082E
:100040001B0100081B0100081B0100081B01000820
:100050001B0100081B0100081B0100081B01000810
:100060001B0100081B0100081B0100081B01000800
:100070001B0100081B0100081B0100081B010008F0
:100080001B0100081B0100081B0100081B010008E0
:100090001B0100081B0100081B0100081B010008D0
:1000A0001B0100081B0100081B0100081B010008C0
:1000B0001B0100081B0100081B0100081B010008B0
:1000C0001B0100081B0100081B0100081B010008A0
:1000D0001B0100081B0100081B0100081B01000890
:1000E0001B0100081B0100081B010008DFF80CD0F1
:1000F00000F018F800480047390E000840040020BE
:100100000648804706480047FEE7FEE7FEE7FEE7B1
:10011000FEE7FEE7FEE7FEE7FEE7FEE7D10D00089B
:10012000ED000008064C074D06E0E06840F00103D2
:1001300094E8070098471034AC42F6D3FFF7DAFF93
:100140000C0F00082C0F0008FEE7000005480168AE
:1001500041F0807101600448016841F001010160D3
:1001600070470000FCED00E0001000E00649074A7F
:100170000968B1FBF2F14143054800224260426840
:100180008A42FCD3704700003C00002040420F0030
:10019000001000E07047000070B5044600F0F2F86F
:1001A0000546601C02D004480078044400F0EAF8D8
:1001B000401BA042FAD370BD300000202DE9F84F5B
:1001C000DFF890A100220AF1040B144601274FF03A
:1001D0000F090BF1040E00BF0B6807FA04F52B4062
:1001E000AB4274D1DFF870C14E68A6EB0C086645CF
:1001F0002BD00DDC032E34D005DC36B3012E19D004
:10020000022E2FD11BE0112E16D0122E2AD119E06A
:10021000B8F5881F19D006DCB8F5803F15D0B8F5C1
:10022000801F1FD111E0B8F5001F0ED0B8F5041FD4
:1002300018D10AE0CA6815E0CA68121D12E0CA683F
:1002400008320FE0CA680C320CE08A682AB1012A31
:100250004FF0080203D0456104E0042202E005618A
:1002600000E00022FF2B01D8064601E000F1040661
:100270004FEA840501D9A5F12005D6F800C009FA96
:1002800005F82CEA080C02FA05F54CEA050CC6F84C
:1002900000C04D68ED0057D5304DAE6946F00106FF
:1002A000AE61AD6924F0030605F0010500952C4D03
:1002B00006EB050CDCF80850A6074FEA167809FA99
:1002C00008F6B543274EB04202D1002610E03BE0CD
:1002D000254EB04201D101260AE0244EB04201D1A0
:1002E000022605E0224EB04201D1032600E004269A
:1002F00006FA08F62E43CCF808604D68DAF800607C
:10030000ED03554601D51E4300E09E432E604D6827
:10031000DBF80060AD035D4601D51E4300E09E435F
:100320002E604D68DEF80060ED02754601D51E4373
:1003300000E09E432E604D68AD020E4D2E6801D543
:100340001E4300E09E432E60641C102CFFF444AF5B
:10035000BDE8F88F000401400000111000100240B9
:100360000000014000080140000C01400010014065
:10037000001401400C0401400AB1016170470904F6
:10038000FBE7000001488068704700003000002053
:100390000248816802781144816070473000002073
:1003A000074810B5016841F010010160032000F01A
:1003B00091F8002000F006F800F024F8002010BDAD
:1003C0000020024070B50D4D04464FF47A71287834
:1003D000B1FBF0F00A490968B1FBF0F000F001FB55
:1003E00048B9102C07D200222146501E00F052F8C6
:1003F00000206C6070BD012070BD00003000002046
:100400003C000020214808B5816941F0010181616B
:10041000816901F001010091C16941F08051C16120
:10042000C06900F080500090032000F053F80022D3
:1004300011466FF00B0000F02DF8002211466FF00E
:100440000A0000F027F8002211466FF0090000F0C2
:1004500021F800221146501F00F01CF8002211461E
:10046000101F00F017F800221146901E00F012F83D
:1004700000221146501E00F00DF80548416821F099
:10048000E06141F00071416008BD000000100240D1
:1004900000000140F0B40E4B1B680C46C3F302236E
:1004A000C3F10705042D00D90425191D072901D220
:1004B000002300E0DB1E012606FA05F1491E21405B
:1004C00099409E40761E16403143F0BC00F039BC86
:1004D0000CED00E0064900F0070208684FF6FF0344
:1004E000184040EA0220034A1043086070470000A9
:1004F0000CED00E00000FA052DE9F047DFF83C8143
:1005000005460E46D8F8000000F00700B0420CD2B5
:10051000D8F8001021F007013143C8F80010D8F8CE
:10052000000000F00700B04263D12878444C8007F7
:1005300005D56068A96820F0F0000843606028785D
:10054000C00745D06868012816D02168022816D057
:10055000890700294DDA616821F0030101436160D8
:10056000FFF710FF6968074641F2883001290FD074
:100570000229814619D027E021688903E9E789012A
:10058000E7E700BFFFF7FEFEC11B494501D918E0B0
:1005900081466068C0F381000128F3D118E000BFF4
:1005A000FFF7F0FEC11B49450BD86068C0F381001E
:1005B0000228F5D10CE000BFFFF7E4FEC11B49455E
:1005C00002D90320BDE8F087606810F00C0FF3D16A
:1005D000D8F80010404601F00701B1420BD901687C
:1005E00021F0070131430160006800F00700B042CC
:1005F00001D00120E6E72878400705D56068E96862
:1006000020F4E060084360602878000706D5606841
:10061000296920F4605040EAC100606000F01CF8D5
:100620006168084AC1F30311515CC840064908607B
:100630000020FFF7C7FE0020C4E7000000200240B2
:1006400000100240FC0E00083C0000200148006839
:10065000704700003C00002012A185B00FC98DE852
:100660000F0014A0144A006804905168134801F068
:100670000C03042B10D0082B0ED1C1F38343C90304
:100680001DF803000AD5516804AAC1F34041515C2A
:100690000A4A5043B0FBF1F005B07047084948439F
:1006A000FAE7000002030405060708090A0B0C0D0F
:1006B0000E0F1010010200000010024000127A001C
:1006C00000093D002DE9F84F04460078B94DC007F8
:1006D00048D06868C0F38100012807D06868C0F37B
:1006E0008100022809D16868C00306D52868800304
:1006F00038D5606800286FD034E06068B0F5803F7E
:100700000BD010B1B0F5A02F11D0286820F48030A4
:100710002860286820F4802002E0286840F48030B7
:100720002860606888B1FFF72DFE064609E028685A
:1007300040F480202860F0E7FFF724FE801B642847
:1007400075D828688003F7D50CE0FFF71BFE064636
:1007500005E000BFFFF716FE801B6428F0D828686C
:100760008003F7D42078944E80074FF001094FF0B2
:1007700000083BD5686810F00C0F07D06868C0F31C
:100780008100022809D16868C00306D42868800760
:1007900014D5206901281FD110E02069B0B1C6F836
:1007A0000090FFF7EFFD074605E000BFFFF7EAFD09
:1007B000C01B0228C4D828688007F7D5286861695B
:1007C00020F0F80040EAC10028600FE0C6F8008081
:1007D000FFF7D8FD074606E0E9E000BFFFF7D2FDCE
:1007E000C01B022823D828688007F7D42078000788
:1007F0002CD57248A169D9B1C0F80090FFF7C2FDAD
:10080000074604E0FFF7BEFDC01B02280FD8686A48
:100810008007F7D56A484FF4FA510068B0FBF1F051
:10082000009000BF0098411E0091FAD20EE080E0D7
:10083000C0F80080FFF7A6FD074604E0FFF7A2FD21
:10084000C01B022875D8686A8007F7D42078400753
:1008500060D5E8690027C00008D4E86940F08050FE
:10086000E861E869012700F0805000905548016870
:10087000C90513D40168834641F480710160FFF714
:1008800081FD824606E000BFFFF77CFDA0EB0A0079
:1008900064284ED8DBF80000C005F5D5E0680128D3
:1008A0000AD008B1052813D0286A20F00100286278
:1008B000286A20F0040002E0286A40F00100286263
:1008C000E06841F2883B98B1FFF75CFD82460BE09F
:1008D000286A40F004002862EEE700BFFFF752FDEF
:1008E000A0EB0A0159455AD8286A8007F6D50CE0D2
:1008F000FFF748FD824605E0FFF744FDA0EB0A0143
:1009000059454CD8286A8007F6D41FB1E86920F011
:100910008050E861E06988B36968C1F38101022908
:1009200045D00228C6F8608004D0FFF72BFD0446AE
:1009300038E034E0FFF726FD074604E0FFF722FD2C
:10094000C01B02282BD828688001F7D4206AB0F594
:10095000803F05D16868A16820F4003008436860D2
:10096000D4E908010843696821F4741108436860F8
:10097000C6F86090FFF706FD044606E015E000BFEC
:10098000FFF700FD001B022809D828688001F7D571
:100990000BE000BFFFF7F6FC001B022802D9032082
:1009A000BDE8F88F28688001F4D40020F8E7012022
:1009B000F6E700000010024000004242800442427C
:1009C0003C000020007000404FF0E021042808693E
:1009D00003D020F004000861704740F00400FAE7FB
:1009E000704710B5401EB0F1807F01D3012010BDCB
:1009F0004FF0E02460610F21601700F0A2F90020A1
:100A0000A06107202061002010BD10B5FFF7E8FFAE
:100A100010BD000010B50A20FFF7A8FB094C012209
:100A200004212046FFF7A8FC0A20FFF79FFB0022C5
:100A300004212046FFF7A0FCBDE810400A20FFF784
:100A400095BB00000008014010B50021012000F016
:100A50004FF8BDE810400220FFF79EBB00213EE0AA
:100A6000C02A1ED0C22A1ED0D12A1ED0C52A1ED00E
:100A7000CD2A1ED0CA2A1ED0CC2A1ED0CE2A1ED0E5
:100A8000D02A1ED0D22A1ED0D52A1ED0D32A1ED0BC
:100A9000C72A1ED0CF2A1ED0C42A24D0C82A24D0C8
:100AA0001BE0412218E0422216E0432214E04522D6
:100AB00012E0482210E04B220EE04D220CE04F22C3
:100AC0000AE0502208E0542206E0582204E05922AD
:100AD00002E0332200E001224254491CC9B2425CC8
:100AE000002ABDD170470222F6E70322F4E7000096
:100AF00070B5314D0446FF290BD000220121284654
:100B0000FFF73AFC0A20FFF731FB200603D501224C
:100B100002E00122F2E7002280212846FFF72CFCA8
:100B2000600601D5012200E0002240212846FFF79F
:100B300023FCA00601D5012200E000222021284646
:100B4000FFF71AFCE00601D5012200E00022102187
:100B50002846FFF711FCFFF75DFF9620FFF706FB25
:100B6000200701D5012200E0002280212846FFF75E
:100B700003FC600701D5012200E000224021284645
:100B8000FFF7FAFBA00701D5012200E00022202197
:100B90002846FFF7F1FBE00701D0012200E0002228
:100BA00010212846FFF7E8FBFFF734FFBDE870404F
:100BB0009620FFF7DBBA00000008014070B51B4D1E
:100BC0000446FF290BD0002201212846FFF7D4FB61
:100BD0009620FFF7CBFA200703D5012202E001227D
:100BE000F2E7002280212846FFF7C6FB600701D507
:100BF000012200E0002240212846FFF7BDFBA007AC
:100C000001D5012200E0002220212846FFF7B4FB95
:100C1000E00701D0012200E0002210212846FFF762
:100C2000ABFBBDE87040FFF7F5BE000000080140D7
:100C300070B504460D460A20FFF7AEFA402040EAA0
:100C4000C400C0B20021FFF753FF0024FF21285D3C
:100C5000FFF74EFF641CE4B2082CF7D370BD70B5EB
:100C60001546127800F00BF8012404E0FF21FFF78D
:100C70003FFF641CE4B2285D0028F7D170BD40EA54
:100C8000811010B5C0B2144640F080000021FFF77B
:100C90002FFF2046BDE81040FF21FFF729BF10B508
:100CA0003C20FFF779FA00210320FFF787FF04209B
:100CB000FFF772FA00210320FFF780FF0420FFF7FF
:100CC0006BFA00210320FFF779FF4FF49670FFF7CE
:100CD0004DFA00210220FFF771FF9620FFF746FA38
:100CE00000212820FFF704FF9620FFF73FFA00219C
:100CF0000D20FFF7FDFE9620FFF738FAFFF7A4FE60
:100D000000210620FFF7F4FEBDE810409620FFF713
:100D10002DBA000010B508490120FFF789FF0649E8
:100D200002201039FFF784FF0349BDE8104008395D
:100D30000320FFF77DBF000010000020FEE7FEE764
:100D400070470907090E002806DA00F00F0000F1CD
:100D5000E02080F8141D704700F1E02080F80014B6
:100D600070477047704710B5FFF712FBBDE81040A1
:100D7000FFF74BBE30B58FB001252804CDE90050F8
:100D8000002407946846FFF79DFC00B1FEE70F20A2
:100D9000CDE90A054FF48060CDE90C4000210AA896
:100DA0000E94FFF7A9FB00B1FEE7FFF74FFC4FF4ED
:100DB0007A71B0FBF1F0FFF714FE0420FFF704FE98
:100DC00000221146501EFFF765FB0FB030BD00003A
:100DD0000D48016841F00101016041680B4A114072
:100DE000416001680A4A11400160016821F48021D4
:100DF0000160416821F4FE0141604FF41F018160F0
:100E00000449C00308607047001002400000FFF86A
:100E1000FFFFF6FE08ED00E0FEE702E008C8121F43
:100E200008C1002AFAD170477047002001E001C1D3
:100E3000121F002AFBD170478EB0FFF7B1FAFFF7FF
:100E400085F9FFF797FF2348816941F0200181610F
:100E5000816901F020010C91816941F004018161F7
:100E600080691D4C00F004000C900122F9212046FD
:100E7000FFF782FA002206212046FFF77DFAFF20C5
:100E800008900120099002200A9003200B9008A9E5
:100E90002046FFF793F9FFF702FFFFF73BFF0FA391
:100EA0000FCB8DE80F006846FFF7D8FD00216A469A
:100EB0000846FFF7D4FE0DA30DF1100C0FCB8CE804
:100EC0000F0004A8FFF7CAFD04AA01210020FFF7C4
:100ED000C6FEFEE70010024000080140CFD0C8C2A5
:100EE000C5D22048656C6C6F2031323348656C6C1C
:100EF0006F20CFD0C8C2C5D22031323300000000ED
:100F00000000000001020304060708092C0F000876
:100F100000000020400000001A0E00086C0F0008BE
:100F200040000020000400002A0E00080E0A0A0AF1
:100F30001B11110011111113151911001F1111119D
:100F4000111111000E111111111F1F1F0E11111F70
:100F50001F1F1F1F0E1F1F1F1F1F1F1F010000002D
:0C0F6000100000000000000000A24A0485
:04000005080000ED02
:00000001FF
